{
  "_format": "hh-sol-artifact-1",
  "contractName": "DropDis",
  "sourceName": "contracts/DropDis.sol",
  "abi": [
    {
      "inputs": [],
      "stateMutability": "nonpayable",
      "type": "constructor"
    },
    {
      "inputs": [],
      "name": "HandlesAlreadySavedForRequestID",
      "type": "error"
    },
    {
      "inputs": [],
      "name": "InvalidKMSSignatures",
      "type": "error"
    },
    {
      "inputs": [],
      "name": "NoHandleFoundForRequestID",
      "type": "error"
    },
    {
      "anonymous": false,
      "inputs": [
        {
          "indexed": true,
          "internalType": "uint256",
          "name": "batchId",
          "type": "uint256"
        }
      ],
      "name": "AddressesDecrypted",
      "type": "event"
    },
    {
      "anonymous": false,
      "inputs": [
        {
          "indexed": true,
          "internalType": "uint256",
          "name": "batchId",
          "type": "uint256"
        },
        {
          "indexed": false,
          "internalType": "uint256",
          "name": "totalAmount",
          "type": "uint256"
        }
      ],
      "name": "AmountsDecrypted",
      "type": "event"
    },
    {
      "anonymous": false,
      "inputs": [
        {
          "indexed": true,
          "internalType": "uint256",
          "name": "batchId",
          "type": "uint256"
        },
        {
          "indexed": false,
          "internalType": "uint256",
          "name": "totalAmount",
          "type": "uint256"
        },
        {
          "indexed": false,
          "internalType": "uint256",
          "name": "failedCount",
          "type": "uint256"
        }
      ],
      "name": "BatchProcessed",
      "type": "event"
    },
    {
      "anonymous": false,
      "inputs": [
        {
          "indexed": true,
          "internalType": "uint256",
          "name": "requestID",
          "type": "uint256"
        }
      ],
      "name": "DecryptionFulfilled",
      "type": "event"
    },
    {
      "anonymous": false,
      "inputs": [
        {
          "indexed": true,
          "internalType": "uint256",
          "name": "batchId",
          "type": "uint256"
        },
        {
          "indexed": false,
          "internalType": "uint256",
          "name": "requestId",
          "type": "uint256"
        },
        {
          "indexed": false,
          "internalType": "enum DropDis.RequestKind",
          "name": "kind",
          "type": "uint8"
        }
      ],
      "name": "DecryptionRequested",
      "type": "event"
    },
    {
      "anonymous": false,
      "inputs": [
        {
          "indexed": true,
          "internalType": "address",
          "name": "owner",
          "type": "address"
        },
        {
          "indexed": false,
          "internalType": "uint256",
          "name": "amount",
          "type": "uint256"
        }
      ],
      "name": "OwnerWithdrawal",
      "type": "event"
    },
    {
      "anonymous": false,
      "inputs": [
        {
          "indexed": true,
          "internalType": "uint256",
          "name": "batchId",
          "type": "uint256"
        },
        {
          "indexed": true,
          "internalType": "address",
          "name": "submitter",
          "type": "address"
        },
        {
          "indexed": false,
          "internalType": "uint256",
          "name": "employeeCount",
          "type": "uint256"
        },
        {
          "indexed": false,
          "internalType": "uint256",
          "name": "deposit",
          "type": "uint256"
        }
      ],
      "name": "SalaryBatchSubmitted",
      "type": "event"
    },
    {
      "anonymous": false,
      "inputs": [
        {
          "indexed": true,
          "internalType": "uint256",
          "name": "batchId",
          "type": "uint256"
        },
        {
          "indexed": true,
          "internalType": "address",
          "name": "employee",
          "type": "address"
        },
        {
          "indexed": false,
          "internalType": "uint256",
          "name": "amount",
          "type": "uint256"
        }
      ],
      "name": "SalaryDistributed",
      "type": "event"
    },
    {
      "anonymous": false,
      "inputs": [
        {
          "indexed": true,
          "internalType": "uint256",
          "name": "batchId",
          "type": "uint256"
        },
        {
          "indexed": true,
          "internalType": "address",
          "name": "employee",
          "type": "address"
        },
        {
          "indexed": false,
          "internalType": "uint256",
          "name": "amount",
          "type": "uint256"
        }
      ],
      "name": "SalaryTransferFailed",
      "type": "event"
    },
    {
      "inputs": [],
      "name": "MAX_BATCH_SIZE",
      "outputs": [
        {
          "internalType": "uint256",
          "name": "",
          "type": "uint256"
        }
      ],
      "stateMutability": "view",
      "type": "function"
    },
    {
      "inputs": [
        {
          "internalType": "uint256",
          "name": "requestId",
          "type": "uint256"
        },
        {
          "internalType": "bytes",
          "name": "cleartexts",
          "type": "bytes"
        },
        {
          "internalType": "bytes",
          "name": "decryptionProof",
          "type": "bytes"
        }
      ],
      "name": "addressDecryptCallback",
      "outputs": [],
      "stateMutability": "nonpayable",
      "type": "function"
    },
    {
      "inputs": [
        {
          "internalType": "uint256",
          "name": "requestId",
          "type": "uint256"
        },
        {
          "internalType": "bytes",
          "name": "cleartexts",
          "type": "bytes"
        },
        {
          "internalType": "bytes",
          "name": "decryptionProof",
          "type": "bytes"
        }
      ],
      "name": "amountDecryptCallback",
      "outputs": [],
      "stateMutability": "nonpayable",
      "type": "function"
    },
    {
      "inputs": [
        {
          "internalType": "uint256",
          "name": "",
          "type": "uint256"
        },
        {
          "internalType": "uint256",
          "name": "",
          "type": "uint256"
        }
      ],
      "name": "failedAmounts",
      "outputs": [
        {
          "internalType": "uint256",
          "name": "",
          "type": "uint256"
        }
      ],
      "stateMutability": "view",
      "type": "function"
    },
    {
      "inputs": [
        {
          "internalType": "uint256",
          "name": "",
          "type": "uint256"
        },
        {
          "internalType": "uint256",
          "name": "",
          "type": "uint256"
        }
      ],
      "name": "failedRecipients",
      "outputs": [
        {
          "internalType": "address",
          "name": "",
          "type": "address"
        }
      ],
      "stateMutability": "view",
      "type": "function"
    },
    {
      "inputs": [
        {
          "internalType": "uint256",
          "name": "batchId",
          "type": "uint256"
        },
        {
          "internalType": "uint256",
          "name": "idx",
          "type": "uint256"
        }
      ],
      "name": "getDecryptedEmployee",
      "outputs": [
        {
          "internalType": "address",
          "name": "employee",
          "type": "address"
        },
        {
          "internalType": "uint256",
          "name": "amount",
          "type": "uint256"
        }
      ],
      "stateMutability": "view",
      "type": "function"
    },
    {
      "inputs": [
        {
          "internalType": "uint256",
          "name": "batchId",
          "type": "uint256"
        }
      ],
      "name": "getFailedTransfers",
      "outputs": [
        {
          "internalType": "address[]",
          "name": "",
          "type": "address[]"
        },
        {
          "internalType": "uint256[]",
          "name": "",
          "type": "uint256[]"
        }
      ],
      "stateMutability": "view",
      "type": "function"
    },
    {
      "inputs": [],
      "name": "nextBatchId",
      "outputs": [
        {
          "internalType": "uint256",
          "name": "",
          "type": "uint256"
        }
      ],
      "stateMutability": "view",
      "type": "function"
    },
    {
      "inputs": [],
      "name": "owner",
      "outputs": [
        {
          "internalType": "address",
          "name": "",
          "type": "address"
        }
      ],
      "stateMutability": "view",
      "type": "function"
    },
    {
      "inputs": [],
      "name": "protocolId",
      "outputs": [
        {
          "internalType": "uint256",
          "name": "",
          "type": "uint256"
        }
      ],
      "stateMutability": "pure",
      "type": "function"
    },
    {
      "inputs": [
        {
          "internalType": "uint256",
          "name": "",
          "type": "uint256"
        }
      ],
      "name": "requestIdToBatchId",
      "outputs": [
        {
          "internalType": "uint256",
          "name": "",
          "type": "uint256"
        }
      ],
      "stateMutability": "view",
      "type": "function"
    },
    {
      "inputs": [
        {
          "internalType": "uint256",
          "name": "",
          "type": "uint256"
        }
      ],
      "name": "requestKind",
      "outputs": [
        {
          "internalType": "enum DropDis.RequestKind",
          "name": "",
          "type": "uint8"
        }
      ],
      "stateMutability": "view",
      "type": "function"
    },
    {
      "inputs": [
        {
          "internalType": "uint256",
          "name": "",
          "type": "uint256"
        }
      ],
      "name": "salaryBatches",
      "outputs": [
        {
          "internalType": "uint256",
          "name": "batchId",
          "type": "uint256"
        },
        {
          "internalType": "address",
          "name": "submitter",
          "type": "address"
        },
        {
          "internalType": "uint256",
          "name": "employeeCount",
          "type": "uint256"
        },
        {
          "internalType": "uint256",
          "name": "totalAmount",
          "type": "uint256"
        },
        {
          "internalType": "uint256",
          "name": "deposit",
          "type": "uint256"
        },
        {
          "internalType": "bool",
          "name": "isProcessed",
          "type": "bool"
        },
        {
          "internalType": "bool",
          "name": "addressesDecrypted",
          "type": "bool"
        },
        {
          "internalType": "bool",
          "name": "amountsDecrypted",
          "type": "bool"
        }
      ],
      "stateMutability": "view",
      "type": "function"
    },
    {
      "inputs": [
        {
          "internalType": "externalEaddress[]",
          "name": "encryptedAddresses",
          "type": "bytes32[]"
        },
        {
          "internalType": "externalEuint64[]",
          "name": "encryptedAmounts",
          "type": "bytes32[]"
        },
        {
          "internalType": "bytes[]",
          "name": "addressProofs",
          "type": "bytes[]"
        },
        {
          "internalType": "bytes[]",
          "name": "amountProofs",
          "type": "bytes[]"
        }
      ],
      "name": "submitSalaryBatch",
      "outputs": [],
      "stateMutability": "payable",
      "type": "function"
    },
    {
      "inputs": [],
      "name": "withdrawExcess",
      "outputs": [],
      "stateMutability": "nonpayable",
      "type": "function"
    },
    {
      "stateMutability": "payable",
      "type": "receive"
    }
  ],
  "bytecode": "0x60a060405260015f55348015610013575f80fd5b5061018e6100b2604080516080810182525f808252602082018190529181018290526060810191909152506040805160808101825273687820221192c5b662b25367f70076a37bc79b6c815273848b0066793bcc60346da1f49049357399b8d595602082015273a02cda4ca3a71d7c46997716f4283aa851c2881291810191909152731364cbbf2cdf5032c47d8226a6f6fbd2afcdacac606082015290565b80517f9e7b61f58c47dc699ac88507c4f5bb9f121c03808c5676a8078fe583e464970080546001600160a01b03199081166001600160a01b039384161790915560208301517f9e7b61f58c47dc699ac88507c4f5bb9f121c03808c5676a8078fe583e46497018054831691841691909117905560408301517f9e7b61f58c47dc699ac88507c4f5bb9f121c03808c5676a8078fe583e46497028054831691841691909117905560608301517f9e7b61f58c47dc699ac88507c4f5bb9f121c03808c5676a8078fe583e46497038054909216921691909117905550565b336080526080516122956101bf5f395f818161020e0152818161095701528181610a7b0152610b3901526122955ff3fe6080604052600436106100e7575f3560e01c8063be048e7911610087578063da1f12ab11610057578063da1f12ab146102a2578063ec26d5ff146102b6578063f86278a314610370578063ff4d730c1461038f575f80fd5b8063be048e7914610248578063c264a06314610267578063c80a88101461027b578063cfdbf2541461028e575f80fd5b80635493ae80116100c25780635493ae80146101705780636eba3146146101ab5780638462a7f8146101e95780638da5cb5b146101fd575f80fd5b806308ae3f6c146100f25780632e51f65b146101245780634401fc0f14610145575f80fd5b366100ee57005b5f80fd5b3480156100fd575f80fd5b5061011161010c366004611bb6565b6103bc565b6040519081526020015b60405180910390f35b34801561012f575f80fd5b5061014361013e366004611c87565b6103e7565b005b348015610150575f80fd5b5061011161015f366004611cef565b60046020525f908152604090205481565b34801561017b575f80fd5b5061019e61018a366004611cef565b60056020525f908152604090205460ff1681565b60405161011b9190611d2e565b3480156101b6575f80fd5b506101ca6101c5366004611bb6565b610649565b604080516001600160a01b03909316835260208301919091520161011b565b3480156101f4575f80fd5b506101115f5481565b348015610208575f80fd5b506102307f000000000000000000000000000000000000000000000000000000000000000081565b6040516001600160a01b03909116815260200161011b565b348015610253575f80fd5b50610143610262366004611c87565b610772565b348015610272575f80fd5b5061014361094c565b610143610289366004611d7d565b610baa565b348015610299575f80fd5b50610111603281565b3480156102ad575f80fd5b50612711610111565b3480156102c1575f80fd5b506103276102d0366004611cef565b600360208190525f918252604090912080546001820154600283015493830154600484015460059094015492946001600160a01b0390921693919290919060ff808216916101008104821691620100009091041688565b604080519889526001600160a01b0390971660208901529587019490945260608601929092526080850152151560a0840152151560c0830152151560e08201526101000161011b565b34801561037b575f80fd5b5061023061038a366004611bb6565b610e52565b34801561039a575f80fd5b506103ae6103a9366004611cef565b610e86565b60405161011b929190611e38565b6007602052815f5260405f2081815481106103d5575f80fd5b905f5260205f20015f91509150505481565b6103f2838383610f50565b5f83815260046020526040812054908190036104475760405162461bcd60e51b815260206004820152600f60248201526e125b9d985b1a59081c995c5d595cdd608a1b60448201526064015b60405180910390fd5b5f8380602001905181019061045c9190611edd565b80515f848152600260205260408120805493945091928103610545575f5b8381101561053f578260405180604001604052805f6001600160a01b031681526020018784815181106104af576104af611f80565b60209081029190910181015167ffffffffffffffff169091528254600180820185555f94855293829020835160029092020180546001600160a01b0319166001600160a01b03909216919091178155910151910155845185908290811061051857610518611f80565b602002602001015167ffffffffffffffff16826105359190611fa8565b915060010161047a565b506105d3565b5f5b838110156105d15784818151811061056157610561611f80565b602002602001015167ffffffffffffffff1683828154811061058557610585611f80565b905f5260205f209060020201600101819055508481815181106105aa576105aa611f80565b602002602001015167ffffffffffffffff16826105c79190611fa8565b9150600101610547565b505b5f85815260036020819052604091829020908101839055600501805462ff00001916620100001790555185907f72a38ef10e24b7500f8be492f052611ecb13198b0e621f1be968df78b5b26c589061062e9084815260200190565b60405180910390a261063f85610fb9565b5050505050505050565b5f828152600360205260408120600501548190610100900460ff16801561068657505f8481526003602052604090206005015462010000900460ff165b6106d25760405162461bcd60e51b815260206004820152600d60248201527f4e6f742064656372797074656400000000000000000000000000000000000000604482015260640161043e565b5f8481526002602052604090208054841061072f5760405162461bcd60e51b815260206004820152600960248201527f496e646578204f4f420000000000000000000000000000000000000000000000604482015260640161043e565b5f81858154811061074257610742611f80565b5f918252602090912060029091020180546001909101546001600160a01b039091169450925050505b9250929050565b61077d838383610f50565b5f83815260046020526040812054908190036107cd5760405162461bcd60e51b815260206004820152600f60248201526e125b9d985b1a59081c995c5d595cdd608a1b604482015260640161043e565b5f838060200190518101906107e29190611fbb565b80515f848152600260205260408120805493945091929003610889575f5b828110156108835781604051806040016040528086848151811061082657610826611f80565b6020908102919091018101516001600160a01b0390811683525f92820183905284546001808201875595845292829020845160029094020180546001600160a01b0319169390911692909217825591909101519082015501610800565b506108f6565b5f5b828110156108f4578381815181106108a5576108a5611f80565b60200260200101518282815481106108bf576108bf611f80565b5f918252602090912060029091020180546001600160a01b0319166001600160a01b039290921691909117905560010161088b565b505b5f84815260036020526040808220600501805461ff0019166101001790555185917ff733b0aa994d24bdad4bdace93bc287b4d5000ecc405c5b3705359721cef992191a261094384610fb9565b50505050505050565b336001600160a01b037f000000000000000000000000000000000000000000000000000000000000000016146109c45760405162461bcd60e51b815260206004820152600a60248201527f4f6e6c79206f776e657200000000000000000000000000000000000000000000604482015260640161043e565b60085460ff1615610a035760405162461bcd60e51b81526020600482015260096024820152681499595b9d1c985b9d60ba1b604482015260640161043e565b6008805460ff191660011790555f610a1961100c565b905047818111610a6b5760405162461bcd60e51b815260206004820152601160248201527f4e6f206578636573732062616c616e6365000000000000000000000000000000604482015260640161043e565b5f610a76838361205b565b90505f7f00000000000000000000000000000000000000000000000000000000000000006001600160a01b0316826040515f6040518083038185875af1925050503d805f8114610ae1576040519150601f19603f3d011682016040523d82523d5f602084013e610ae6565b606091505b5050905080610b375760405162461bcd60e51b815260206004820152600f60248201527f5769746864726177206661696c65640000000000000000000000000000000000604482015260640161043e565b7f00000000000000000000000000000000000000000000000000000000000000006001600160a01b03167fa919fadcfa556a012bab31b15f596ea7ccd397adbf10e15f176db9055ab361c483604051610b9291815260200190565b60405180910390a250506008805460ff191690555050565b86858114610bfa5760405162461bcd60e51b815260206004820152600f60248201527f4c656e677468206d69736d617463680000000000000000000000000000000000604482015260640161043e565b5f81118015610c0a575060328111155b610c565760405162461bcd60e51b815260206004820152601260248201527f496e76616c69642062617463682073697a650000000000000000000000000000604482015260640161043e565b5f80548180610c648361206e565b909155505f8181526003602052604081208281556001810180546001600160a01b031916331790556002810185905560058101805462ffffff191690553460048201559192505b83811015610dff575f610d2d8d8d84818110610cc957610cc9611f80565b905060200201358a8a85818110610ce257610ce2611f80565b9050602002810190610cf49190612086565b8080601f0160208091040260200160405190810160405280939291908181526020018383808284375f9201919091525061104492505050565b90505f610da98c8c85818110610d4557610d45611f80565b90506020020135898986818110610d5e57610d5e611f80565b9050602002810190610d709190612086565b8080601f0160208091040260200160405190810160405280939291908181526020018383808284375f9201919091525061105a92505050565b60408051808201825284815260208082018481525f8a815260018084528582208a8352909352939093209151825591519101559050610de782611067565b50610df181611067565b505050806001019050610cab565b5060408051848152346020820152339184917f71cced1c024acf663cb82bbcb111b5f72afb34048b147c5b17a65e08f00d8e12910160405180910390a3610e4582611076565b5050505050505050505050565b6006602052815f5260405f208181548110610e6b575f80fd5b5f918252602090912001546001600160a01b03169150829050565b5f8181526006602090815260408083206007835292819020835482518185028101850190935280835260609485949093918491830182828015610ef057602002820191905f5260205f20905b81546001600160a01b03168152600190910190602001808311610ed2575b5050505050915080805480602002602001604051908101604052809291908181526020018280548015610f4057602002820191905f5260205f20905b815481526020019060010190808311610f2c575b5050505050905091509150915091565b5f610f5a84611293565b90505f610f68828585611364565b905080610f885760405163cf6c44e960e01b815260040160405180910390fd5b60405185907f1af0453083661051f6e56e5c070792320652e612154bf9af8637bb1e7655b99d905f90a25050505050565b5f8181526003602052604090206005810154610100900460ff168015610fe95750600581015462010000900460ff165b8015610ffa5750600581015460ff16155b156110085761100882611452565b5050565b5f805460015b8181101561103f575f818152600360205260409020600401546110359084611fa8565b9250600101611012565b505090565b5f611051838360076117f5565b90505b92915050565b5f611051838360056117f5565b5f6110728230611915565b5090565b5f81815260036020526040812060020154908167ffffffffffffffff8111156110a1576110a1611bd6565b6040519080825280602002602001820160405280156110ca578160200160208202803683370190505b5090505f8267ffffffffffffffff8111156110e7576110e7611bd6565b604051908082528060200260200182016040528015611110578160200160208202803683370190505b5090505f5b83811015611195575f85815260016020908152604080832084845290915290205483828151811061114857611148611f80565b6020908102919091018101919091525f86815260018083526040808320858452909352919020015482828151811061118257611182611f80565b6020908102919091010152600101611115565b505f6111a88363be048e7960e01b611995565b5f81815260046020908152604080832089905560059091529020805491925060019160ff191682800217905550847f08b76acf3289dd1d9d88d90971104d6f2df2f04899bf9a03ac2408c3218685178260016040516112089291906120c9565b60405180910390a25f61122283632e51f65b60e01b611995565b5f8181526004602090815260408083208a905560059091529020805491925060029160ff19166001830217905550857f08b76acf3289dd1d9d88d90971104d6f2df2f04899bf9a03ac2408c3218685178260026040516112839291906120c9565b60405180910390a2505050505050565b5f8181527f878245876662ba28a480c5ea71726db859fb50222b0a3d7cbbc21cfa336faf0160205260408120546060917f878245876662ba28a480c5ea71726db859fb50222b0a3d7cbbc21cfa336faf009190036113045760405163d66ca67560e01b815260040160405180910390fd5b5f8381526001820160209081526040918290208054835181840281018401909452808452909183018282801561135757602002820191905f5260205f20905b815481526020019060010190808311611343575b5050505050915050919050565b5f80835160206113749190611fa8565b61137f906020611fa8565b90505f84826040516020016113959291906120ff565b60405160208183030381529060405290505f6113ce7f9e7b61f58c47dc699ac88507c4f5bb9f121c03808c5676a8078fe583e464970090565b60038101546040516378542ead60e01b81529192506001600160a01b0316906378542ead90611405908a9086908a90600401612185565b6020604051808303815f875af1158015611421573d5f803e3d5ffd5b505050506040513d601f19601f8201168201806040525081019061144591906121c7565b93505050505b9392505050565b60085460ff16156114915760405162461bcd60e51b81526020600482015260096024820152681499595b9d1c985b9d60ba1b604482015260640161043e565b6008805460ff191660011790555f818152600360205260409020600581015460ff16156115005760405162461bcd60e51b815260206004820152601160248201527f416c72656164792070726f636573736564000000000000000000000000000000604482015260640161043e565b600381015460048201548111156115595760405162461bcd60e51b815260206004820152601e60248201527f496e73756666696369656e74206465706f73697420666f722062617463680000604482015260640161043e565b60058201805460ff191660011790555f83815260026020526040812090805b82548110156117a2575f83828154811061159457611594611f80565b5f918252602082206002909102015485546001600160a01b0390911692508590849081106115c4576115c4611f80565b905f5260205f2090600202016001015490505f6001600160a01b0316826001600160a01b031614806115f4575080155b1561165f575f8881526006602090815260408083208054600180820183559185528385200180546001600160a01b0319166001600160a01b0388161790558b845260078352908320805491820181558352912001819055836116558161206e565b945050505061179a565b5f826001600160a01b0316826040515f6040518083038185875af1925050503d805f81146116a8576040519150601f19603f3d011682016040523d82523d5f602084013e6116ad565b606091505b50509050801561170057826001600160a01b0316897ff1ac2555de239bcf03d73d45fe7f6594ac62e4057c2f6a609964c047bf92852b846040516116f391815260200190565b60405180910390a3611796565b5f8981526006602090815260408083208054600180820183559185528385200180546001600160a01b0319166001600160a01b0389169081179091558d8552600784528285208054928301815585529383902001859055518481528b917f360c82a941bfa42db87c699e09dfb26895dda8d4d2f34e546390b4e556bd3d34910160405180910390a3846117928161206e565b9550505b5050505b600101611578565b505f6004850155604080518481526020810183905286917fd03f99f321df6e5a7f705a548f7e6b4880d02286dda4ffbbf00ff5353381fa89910160405180910390a250506008805460ff19169055505050565b7f9e7b61f58c47dc699ac88507c4f5bb9f121c03808c5676a8078fe583e46497015460405163196d0b9b60e01b81525f917f9e7b61f58c47dc699ac88507c4f5bb9f121c03808c5676a8078fe583e4649700916001600160a01b039091169063196d0b9b9061186e9088903390899089906004016121e6565b6020604051808303815f875af115801561188a573d5f803e3d5ffd5b505050506040513d601f19601f820116820180604052508101906118ae919061222e565b8154604051630f8e573b60e21b8152600481018390523360248201529193506001600160a01b031690633e395cec906044015f604051808303815f87803b1580156118f7575f80fd5b505af1158015611909573d5f803e3d5ffd5b50505050509392505050565b5f7f9e7b61f58c47dc699ac88507c4f5bb9f121c03808c5676a8078fe583e46497008054604051635ca4b5b160e11b8152600481018690526001600160a01b03858116602483015292935091169063b9496b62906044015f604051808303815f87803b158015611983575f80fd5b505af1158015610943573d5f803e3d5ffd5b5f61105183835f80807f878245876662ba28a480c5ea71726db859fb50222b0a3d7cbbc21cfa336faf008054925090505f7f9e7b61f58c47dc699ac88507c4f5bb9f121c03808c5676a8078fe583e46497008054604051637d6e912360e11b81529192506001600160a01b03169063fadd224690611a17908990600401612245565b5f604051808303815f87803b158015611a2e575f80fd5b505af1158015611a40573d5f803e3d5ffd5b5050506002820154604051633263b83b60e01b81526001600160a01b039091169150633263b83b908690611a7c9087908b908b90600401612257565b5f604051808303818588803b158015611a93575f80fd5b505af1158015611aa5573d5f803e3d5ffd5b5050505050611ab48387611acf565b8154825f611ac18361206e565b919050555050509392505050565b5f8281527f878245876662ba28a480c5ea71726db859fb50222b0a3d7cbbc21cfa336faf0160205260409020547f878245876662ba28a480c5ea71726db859fb50222b0a3d7cbbc21cfa336faf009015611b3c57604051633f06d22b60e01b815260040160405180910390fd5b5f83815260018201602090815260409091208351611b5c92850190611b62565b50505050565b828054828255905f5260205f20908101928215611b9b579160200282015b82811115611b9b578251825591602001919060010190611b80565b506110729291505b80821115611072575f8155600101611ba3565b5f8060408385031215611bc7575f80fd5b50508035926020909101359150565b634e487b7160e01b5f52604160045260245ffd5b604051601f8201601f1916810167ffffffffffffffff81118282101715611c1357611c13611bd6565b604052919050565b5f82601f830112611c2a575f80fd5b813567ffffffffffffffff811115611c4457611c44611bd6565b611c57601f8201601f1916602001611bea565b818152846020838601011115611c6b575f80fd5b816020850160208301375f918101602001919091529392505050565b5f805f60608486031215611c99575f80fd5b83359250602084013567ffffffffffffffff80821115611cb7575f80fd5b611cc387838801611c1b565b93506040860135915080821115611cd8575f80fd5b50611ce586828701611c1b565b9150509250925092565b5f60208284031215611cff575f80fd5b5035919050565b634e487b7160e01b5f52602160045260245ffd5b60038110611d2a57611d2a611d06565b9052565b602081016110548284611d1a565b5f8083601f840112611d4c575f80fd5b50813567ffffffffffffffff811115611d63575f80fd5b6020830191508360208260051b850101111561076b575f80fd5b5f805f805f805f806080898b031215611d94575f80fd5b883567ffffffffffffffff80821115611dab575f80fd5b611db78c838d01611d3c565b909a50985060208b0135915080821115611dcf575f80fd5b611ddb8c838d01611d3c565b909850965060408b0135915080821115611df3575f80fd5b611dff8c838d01611d3c565b909650945060608b0135915080821115611e17575f80fd5b50611e248b828c01611d3c565b999c989b5096995094979396929594505050565b604080825283519082018190525f906020906060840190828701845b82811015611e795781516001600160a01b031684529284019290840190600101611e54565b505050838103828501528451808252858301918301905f5b81811015611ead57835183529284019291840191600101611e91565b5090979650505050505050565b5f67ffffffffffffffff821115611ed357611ed3611bd6565b5060051b60200190565b5f6020808385031215611eee575f80fd5b825167ffffffffffffffff80821115611f05575f80fd5b818501915085601f830112611f18575f80fd5b8151611f2b611f2682611eba565b611bea565b81815260059190911b83018401908481019088831115611f49575f80fd5b938501935b82851015611f745784518481168114611f65575f80fd5b82529385019390850190611f4e565b98975050505050505050565b634e487b7160e01b5f52603260045260245ffd5b634e487b7160e01b5f52601160045260245ffd5b8082018082111561105457611054611f94565b5f6020808385031215611fcc575f80fd5b825167ffffffffffffffff811115611fe2575f80fd5b8301601f81018513611ff2575f80fd5b8051612000611f2682611eba565b81815260059190911b8201830190838101908783111561201e575f80fd5b928401925b828410156120505783516001600160a01b0381168114612041575f80fd5b82529284019290840190612023565b979650505050505050565b8181038181111561105457611054611f94565b5f6001820161207f5761207f611f94565b5060010190565b5f808335601e1984360301811261209b575f80fd5b83018035915067ffffffffffffffff8211156120b5575f80fd5b60200191503681900382131561076b575f80fd5b8281526040810161144b6020830184611d1a565b5f5b838110156120f75781810151838201526020016120df565b50505f910152565b5f83516121108184602088016120dd565b9190910191825250602001919050565b5f815180845260208085019450602084015f5b8381101561214f57815187529582019590820190600101612133565b509495945050505050565b5f81518084526121718160208601602086016120dd565b601f01601f19169290920160200192915050565b606081525f6121976060830186612120565b82810360208401526121a9818661215a565b905082810360408401526121bd818561215a565b9695505050505050565b5f602082840312156121d7575f80fd5b8151801515811461144b575f80fd5b8481526001600160a01b0384166020820152608060408201525f61220d608083018561215a565b90506054831061221f5761221f611d06565b82606083015295945050505050565b5f6020828403121561223e575f80fd5b5051919050565b602081525f6110516020830184612120565b838152606060208201525f61226f6060830185612120565b905063ffffffff60e01b8316604083015294935050505056fea164736f6c6343000818000a",
  "linkReferences": {},
  "deployedLinkReferences": {}
}