{
  "_format": "hh3-artifact-1",
  "contractName": "DropDis",
  "sourceName": "contracts/DropDis.sol",
  "abi": [
    {
      "inputs": [],
      "stateMutability": "nonpayable",
      "type": "constructor"
    },
    {
      "inputs": [],
      "name": "HandlesAlreadySavedForRequestID",
      "type": "error"
    },
    {
      "inputs": [],
      "name": "InvalidKMSSignatures",
      "type": "error"
    },
    {
      "inputs": [],
      "name": "NoHandleFoundForRequestID",
      "type": "error"
    },
    {
      "anonymous": false,
      "inputs": [
        {
          "indexed": true,
          "internalType": "uint256",
          "name": "batchId",
          "type": "uint256"
        }
      ],
      "name": "AddressesDecrypted",
      "type": "event"
    },
    {
      "anonymous": false,
      "inputs": [
        {
          "indexed": true,
          "internalType": "uint256",
          "name": "batchId",
          "type": "uint256"
        }
      ],
      "name": "AmountsDecrypted",
      "type": "event"
    },
    {
      "anonymous": false,
      "inputs": [
        {
          "indexed": true,
          "internalType": "uint256",
          "name": "batchId",
          "type": "uint256"
        },
        {
          "indexed": false,
          "internalType": "uint256",
          "name": "totalAmount",
          "type": "uint256"
        }
      ],
      "name": "BatchProcessed",
      "type": "event"
    },
    {
      "anonymous": false,
      "inputs": [
        {
          "indexed": true,
          "internalType": "uint256",
          "name": "requestID",
          "type": "uint256"
        }
      ],
      "name": "DecryptionFulfilled",
      "type": "event"
    },
    {
      "anonymous": false,
      "inputs": [
        {
          "indexed": true,
          "internalType": "uint256",
          "name": "batchId",
          "type": "uint256"
        },
        {
          "indexed": true,
          "internalType": "address",
          "name": "submitter",
          "type": "address"
        },
        {
          "indexed": false,
          "internalType": "uint256",
          "name": "employeeCount",
          "type": "uint256"
        }
      ],
      "name": "SalaryBatchSubmitted",
      "type": "event"
    },
    {
      "anonymous": false,
      "inputs": [
        {
          "indexed": true,
          "internalType": "uint256",
          "name": "batchId",
          "type": "uint256"
        },
        {
          "indexed": true,
          "internalType": "address",
          "name": "employee",
          "type": "address"
        },
        {
          "indexed": false,
          "internalType": "uint256",
          "name": "amount",
          "type": "uint256"
        }
      ],
      "name": "SalaryDistributed",
      "type": "event"
    },
    {
      "inputs": [
        {
          "internalType": "uint256",
          "name": "requestId",
          "type": "uint256"
        },
        {
          "internalType": "bytes",
          "name": "cleartexts",
          "type": "bytes"
        },
        {
          "internalType": "bytes",
          "name": "decryptionProof",
          "type": "bytes"
        }
      ],
      "name": "addressDecryptCallback",
      "outputs": [],
      "stateMutability": "nonpayable",
      "type": "function"
    },
    {
      "inputs": [
        {
          "internalType": "uint256",
          "name": "requestId",
          "type": "uint256"
        },
        {
          "internalType": "bytes",
          "name": "cleartexts",
          "type": "bytes"
        },
        {
          "internalType": "bytes",
          "name": "decryptionProof",
          "type": "bytes"
        }
      ],
      "name": "amountDecryptCallback",
      "outputs": [],
      "stateMutability": "nonpayable",
      "type": "function"
    },
    {
      "inputs": [
        {
          "internalType": "uint256",
          "name": "",
          "type": "uint256"
        },
        {
          "internalType": "uint256",
          "name": "",
          "type": "uint256"
        }
      ],
      "name": "encryptedEmployees",
      "outputs": [
        {
          "internalType": "eaddress",
          "name": "employeeAddress",
          "type": "bytes32"
        },
        {
          "internalType": "euint64",
          "name": "salaryAmount",
          "type": "bytes32"
        }
      ],
      "stateMutability": "view",
      "type": "function"
    },
    {
      "inputs": [
        {
          "internalType": "uint256",
          "name": "batchId",
          "type": "uint256"
        }
      ],
      "name": "getBatchStatus",
      "outputs": [
        {
          "internalType": "bool",
          "name": "isProcessed",
          "type": "bool"
        },
        {
          "internalType": "bool",
          "name": "addressDecrypted",
          "type": "bool"
        },
        {
          "internalType": "bool",
          "name": "amountDecrypted",
          "type": "bool"
        },
        {
          "internalType": "uint256",
          "name": "totalAmount",
          "type": "uint256"
        }
      ],
      "stateMutability": "view",
      "type": "function"
    },
    {
      "inputs": [
        {
          "internalType": "uint256",
          "name": "batchId",
          "type": "uint256"
        },
        {
          "internalType": "uint256",
          "name": "employeeIndex",
          "type": "uint256"
        }
      ],
      "name": "getDecryptedEmployee",
      "outputs": [
        {
          "internalType": "address",
          "name": "employeeAddress",
          "type": "address"
        },
        {
          "internalType": "uint256",
          "name": "salaryAmount",
          "type": "uint256"
        }
      ],
      "stateMutability": "view",
      "type": "function"
    },
    {
      "inputs": [],
      "name": "nextBatchId",
      "outputs": [
        {
          "internalType": "uint256",
          "name": "",
          "type": "uint256"
        }
      ],
      "stateMutability": "view",
      "type": "function"
    },
    {
      "inputs": [],
      "name": "owner",
      "outputs": [
        {
          "internalType": "address",
          "name": "",
          "type": "address"
        }
      ],
      "stateMutability": "view",
      "type": "function"
    },
    {
      "inputs": [],
      "name": "protocolId",
      "outputs": [
        {
          "internalType": "uint256",
          "name": "",
          "type": "uint256"
        }
      ],
      "stateMutability": "pure",
      "type": "function"
    },
    {
      "inputs": [
        {
          "internalType": "uint256",
          "name": "",
          "type": "uint256"
        }
      ],
      "name": "salaryBatches",
      "outputs": [
        {
          "internalType": "uint256",
          "name": "batchId",
          "type": "uint256"
        },
        {
          "internalType": "address",
          "name": "submitter",
          "type": "address"
        },
        {
          "internalType": "uint256",
          "name": "totalAmount",
          "type": "uint256"
        },
        {
          "internalType": "uint256",
          "name": "employeeCount",
          "type": "uint256"
        },
        {
          "internalType": "bool",
          "name": "isProcessed",
          "type": "bool"
        },
        {
          "internalType": "bool",
          "name": "addressDecrypted",
          "type": "bool"
        },
        {
          "internalType": "bool",
          "name": "amountDecrypted",
          "type": "bool"
        }
      ],
      "stateMutability": "view",
      "type": "function"
    },
    {
      "inputs": [
        {
          "internalType": "externalEaddress[]",
          "name": "encryptedAddresses",
          "type": "bytes32[]"
        },
        {
          "internalType": "externalEuint64[]",
          "name": "encryptedAmounts",
          "type": "bytes32[]"
        },
        {
          "internalType": "bytes[]",
          "name": "addressProofs",
          "type": "bytes[]"
        },
        {
          "internalType": "bytes[]",
          "name": "amountProofs",
          "type": "bytes[]"
        }
      ],
      "name": "submitSalaryBatch",
      "outputs": [],
      "stateMutability": "payable",
      "type": "function"
    },
    {
      "inputs": [],
      "name": "withdraw",
      "outputs": [],
      "stateMutability": "nonpayable",
      "type": "function"
    },
    {
      "stateMutability": "payable",
      "type": "receive"
    }
  ],
  "bytecode": "0x608060405234801562000010575f80fd5b5062000031620000256200007e60201b60201c565b6200015660201b60201c565b335f806101000a81548173ffffffffffffffffffffffffffffffffffffffff021916908373ffffffffffffffffffffffffffffffffffffffff16021790555060016003819055506200033a565b62000088620002be565b604051806080016040528073687820221192c5b662b25367f70076a37bc79b6c73ffffffffffffffffffffffffffffffffffffffff16815260200173848b0066793bcc60346da1f49049357399b8d59573ffffffffffffffffffffffffffffffffffffffff16815260200173a02cda4ca3a71d7c46997716f4283aa851c2881273ffffffffffffffffffffffffffffffffffffffff168152602001731364cbbf2cdf5032c47d8226a6f6fbd2afcdacac73ffffffffffffffffffffffffffffffffffffffff16815250905090565b62000167816200016a60201b60201c565b50565b5f6200017b6200029760201b60201c565b9050815f0151815f015f6101000a81548173ffffffffffffffffffffffffffffffffffffffff021916908373ffffffffffffffffffffffffffffffffffffffff1602179055508160200151816001015f6101000a81548173ffffffffffffffffffffffffffffffffffffffff021916908373ffffffffffffffffffffffffffffffffffffffff1602179055508160400151816002015f6101000a81548173ffffffffffffffffffffffffffffffffffffffff021916908373ffffffffffffffffffffffffffffffffffffffff1602179055508160600151816003015f6101000a81548173ffffffffffffffffffffffffffffffffffffffff021916908373ffffffffffffffffffffffffffffffffffffffff1602179055505050565b5f7f9e7b61f58c47dc699ac88507c4f5bb9f121c03808c5676a8078fe583e4649700905090565b60405180608001604052805f73ffffffffffffffffffffffffffffffffffffffff1681526020015f73ffffffffffffffffffffffffffffffffffffffff1681526020015f73ffffffffffffffffffffffffffffffffffffffff1681526020015f73ffffffffffffffffffffffffffffffffffffffff1681525090565b612e2a80620003485f395ff3fe60806040526004361061009f575f3560e01c80638da5cb5b116100635780638da5cb5b1461018e578063be048e79146101b8578063bfd83956146101e0578063c80a88101461021d578063da1f12ab14610239578063ec26d5ff14610263576100a6565b80632d1bbc8e146100aa5780632e51f65b146100e95780633ccfd60b146101115780636eba3146146101275780638462a7f814610164576100a6565b366100a657005b5f80fd5b3480156100b5575f80fd5b506100d060048036038101906100cb9190611a71565b6102a5565b6040516100e09493929190611ac5565b60405180910390f35b3480156100f4575f80fd5b5061010f600480360381019061010a9190611c44565b610307565b005b34801561011c575f80fd5b50610125610495565b005b348015610132575f80fd5b5061014d60048036038101906101489190611ccc565b610634565b60405161015b929190611d49565b60405180910390f35b34801561016f575f80fd5b50610178610771565b6040516101859190611d70565b60405180910390f35b348015610199575f80fd5b506101a2610777565b6040516101af9190611d89565b60405180910390f35b3480156101c3575f80fd5b506101de60048036038101906101d99190611c44565b61079a565b005b3480156101eb575f80fd5b5061020660048036038101906102019190611ccc565b610909565b604051610214929190611dda565b60405180910390f35b61023760048036038101906102329190611f08565b610943565b005b348015610244575f80fd5b5061024d610cfd565b60405161025a9190611d70565b60405180910390f35b34801561026e575f80fd5b5061028960048036038101906102849190611a71565b610d0b565b60405161029c9796959493929190611fec565b60405180910390f35b5f805f805f60015f8781526020019081526020015f209050806004015f9054906101000a900460ff168160040160019054906101000a900460ff168260040160029054906101000a900460ff1683600201549450945094509450509193509193565b610312838383610d8e565b5f61031c84610e13565b90505f8111610360576040517f08c379a0000000000000000000000000000000000000000000000000000000008152600401610357906120b3565b60405180910390fd5b5f8380602001905181019061037591906121ce565b90505f805b82518110156104115782818151811061039657610395612215565b5b602002602001015167ffffffffffffffff1660015f8681526020019081526020015f206005015f8381526020019081526020015f20600101819055508281815181106103e5576103e4612215565b5b602002602001015167ffffffffffffffff1682610402919061226f565b9150808060010191505061037a565b508060015f8581526020019081526020015f20600201819055506001805f8581526020019081526020015f2060040160026101000a81548160ff021916908315150217905550827fe256209fc2a58bf13d9d1966295e8fdbd6fa3740633191cf96f29cd19880933d60405160405180910390a261048d83610e5e565b505050505050565b5f8054906101000a900473ffffffffffffffffffffffffffffffffffffffff1673ffffffffffffffffffffffffffffffffffffffff163373ffffffffffffffffffffffffffffffffffffffff1614610522576040517f08c379a000000000000000000000000000000000000000000000000000000000815260040161051990612312565b60405180910390fd5b5f4790505f8111610568576040517f08c379a000000000000000000000000000000000000000000000000000000000815260040161055f9061237a565b60405180910390fd5b5f805f9054906101000a900473ffffffffffffffffffffffffffffffffffffffff1673ffffffffffffffffffffffffffffffffffffffff16826040516105ad906123c5565b5f6040518083038185875af1925050503d805f81146105e7576040519150601f19603f3d011682016040523d82523d5f602084013e6105ec565b606091505b5050905080610630576040517f08c379a000000000000000000000000000000000000000000000000000000000815260040161062790612423565b60405180910390fd5b5050565b5f8060015f8581526020019081526020015f2060040160019054906101000a900460ff168015610682575060015f8581526020019081526020015f2060040160029054906101000a900460ff165b6106c1576040517f08c379a00000000000000000000000000000000000000000000000000000000081526004016106b89061248b565b60405180910390fd5b60015f8581526020019081526020015f20600301548310610717576040517f08c379a000000000000000000000000000000000000000000000000000000000815260040161070e906124f3565b60405180910390fd5b5f60015f8681526020019081526020015f206005015f8581526020019081526020015f209050805f015f9054906101000a900473ffffffffffffffffffffffffffffffffffffffff16816001015492509250509250929050565b60035481565b5f8054906101000a900473ffffffffffffffffffffffffffffffffffffffff1681565b6107a5838383610d8e565b5f6107af84610e13565b90505f81116107f3576040517f08c379a00000000000000000000000000000000000000000000000000000000081526004016107ea906120b3565b60405180910390fd5b5f8380602001905181019061080891906125fb565b90505f5b815181101561089f5781818151811061082857610827612215565b5b602002602001015160015f8581526020019081526020015f206005015f8381526020019081526020015f205f015f6101000a81548173ffffffffffffffffffffffffffffffffffffffff021916908373ffffffffffffffffffffffffffffffffffffffff160217905550808060010191505061080c565b506001805f8481526020019081526020015f2060040160016101000a81548160ff021916908315150217905550817ff733b0aa994d24bdad4bdace93bc287b4d5000ecc405c5b3705359721cef992160405160405180910390a261090282610e5e565b5050505050565b6002602052815f5260405f208181548110610922575f80fd5b905f5260205f2090600202015f9150915050805f0154908060010154905082565b85859050888890501461098b576040517f08c379a00000000000000000000000000000000000000000000000000000000081526004016109829061268c565b60405180910390fd5b5f88889050116109d0576040517f08c379a00000000000000000000000000000000000000000000000000000000081526004016109c7906126f4565b60405180910390fd5b6032888890501115610a17576040517f08c379a0000000000000000000000000000000000000000000000000000000008152600401610a0e9061275c565b60405180910390fd5b5f60035f815480929190610a2a9061277a565b9190505590505f60015f8381526020019081526020015f20905081815f018190555033816001015f6101000a81548173ffffffffffffffffffffffffffffffffffffffff021916908373ffffffffffffffffffffffffffffffffffffffff1602179055508989905081600301819055505f816004015f6101000a81548160ff0219169083151502179055505f8160040160016101000a81548160ff0219169083151502179055505f8160040160026101000a81548160ff0219169083151502179055505f5b8a8a9050811015610c95575f610b848c8c84818110610b1157610b10612215565b5b90506020020135898985818110610b2b57610b2a612215565b5b9050602002810190610b3d91906127cd565b8080601f0160208091040260200160405190810160405280939291908181526020018383808284375f81840152601f19601f82011690508083019250505050505050610ecb565b90505f610c108b8b85818110610b9d57610b9c612215565b5b90506020020135888886818110610bb757610bb6612215565b5b9050602002810190610bc991906127cd565b8080601f0160208091040260200160405190810160405280939291908181526020018383808284375f81840152601f19601f82011690508083019250505050505050610ee0565b905060025f8681526020019081526020015f20604051806040016040528084815260200183815250908060018154018082558091505060019003905f5260205f2090600202015f909190919091505f820151815f0155602082015181600101555050610c7b82610ef5565b50610c8581610f08565b5050508080600101915050610aef565b503373ffffffffffffffffffffffffffffffffffffffff16827f8266ee6844488d593842b92fdc969488ec9ec06cd624a36b4a3273b73926b0b18c8c9050604051610ce09190611d70565b60405180910390a3610cf182610f1b565b50505050505050505050565b5f610d066110fb565b905090565b6001602052805f5260405f205f91509050805f015490806001015f9054906101000a900473ffffffffffffffffffffffffffffffffffffffff1690806002015490806003015490806004015f9054906101000a900460ff16908060040160019054906101000a900460ff16908060040160029054906101000a900460ff16905087565b5f610d9884611104565b90505f610da68285856111c8565b905080610ddf576040517fcf6c44e900000000000000000000000000000000000000000000000000000000815260040160405180910390fd5b847f1af0453083661051f6e56e5c070792320652e612154bf9af8637bb1e7655b99d60405160405180910390a25050505050565b5f80600190505b600354811015610e54578260015f8381526020019081526020015f205f015403610e475780915050610e59565b8080600101915050610e1a565b505f90505b919050565b5f60015f8381526020019081526020015f2090508060040160019054906101000a900460ff168015610e9e57508060040160029054906101000a900460ff165b8015610eb85750806004015f9054906101000a900460ff16155b15610ec757610ec6826112c2565b5b5050565b5f610ed883836007611591565b905092915050565b5f610eed83836005611591565b905092915050565b5f610f0082306116d3565b819050919050565b5f610f1382306116d3565b819050919050565b5f60025f8381526020019081526020015f208054905067ffffffffffffffff811115610f4a57610f49611b20565b5b604051908082528060200260200182016040528015610f785781602001602082028036833780820191505090505b5090505f60025f8481526020019081526020015f208054905067ffffffffffffffff811115610faa57610fa9611b20565b5b604051908082528060200260200182016040528015610fd85781602001602082028036833780820191505090505b5090505f5b60025f8581526020019081526020015f20805490508110156110b95761103360025f8681526020019081526020015f20828154811061101f5761101e612215565b5b905f5260205f2090600202015f015461176d565b83828151811061104657611045612215565b5b60200260200101818152505061108d60025f8681526020019081526020015f20828154811061107857611077612215565b5b905f5260205f20906002020160010154611776565b8282815181106110a05761109f612215565b5b6020026020010181815250508080600101915050610fdd565b506110cb8263be048e7960e01b61177f565b506110dd81632e51f65b60e01b61177f565b508260015f8581526020019081526020015f205f0181905550505050565b5f612711905090565b60605f61110f611793565b90505f816001015f8581526020019081526020015f208054905003611160576040517fd66ca67500000000000000000000000000000000000000000000000000000000815260040160405180910390fd5b806001015f8481526020019081526020015f208054806020026020016040519081016040528092919081815260200182805480156111bb57602002820191905f5260205f20905b8154815260200190600101908083116111a7575b5050505050915050919050565b5f806020845160206111da919061226f565b6111e4919061226f565b90505f84826040516020016111fa9291906128b1565b60405160208183030381529060405290505f6112146117ba565b9050806003015f9054906101000a900473ffffffffffffffffffffffffffffffffffffffff1673ffffffffffffffffffffffffffffffffffffffff166378542ead8884886040518463ffffffff1660e01b8152600401611276939291906129d7565b6020604051808303815f875af1158015611292573d5f803e3d5ffd5b505050506040513d601f19601f820116820180604052508101906112b69190612a4b565b93505050509392505050565b5f60015f8381526020019081526020015f209050478160020154111561131d576040517f08c379a000000000000000000000000000000000000000000000000000000000815260040161131490612ac0565b60405180910390fd5b5f5b8160030154811015611534575f826005015f8381526020019081526020015f205f015f9054906101000a900473ffffffffffffffffffffffffffffffffffffffff1690505f836005015f8481526020019081526020015f206001015490505f73ffffffffffffffffffffffffffffffffffffffff168273ffffffffffffffffffffffffffffffffffffffff16036113eb576040517f08c379a00000000000000000000000000000000000000000000000000000000081526004016113e290612b28565b60405180910390fd5b5f811161142d576040517f08c379a000000000000000000000000000000000000000000000000000000000815260040161142490612b90565b60405180910390fd5b5f8273ffffffffffffffffffffffffffffffffffffffff1682604051611452906123c5565b5f6040518083038185875af1925050503d805f811461148c576040519150601f19603f3d011682016040523d82523d5f602084013e611491565b606091505b50509050806114d5576040517f08c379a00000000000000000000000000000000000000000000000000000000081526004016114cc90612bf8565b60405180910390fd5b8273ffffffffffffffffffffffffffffffffffffffff16867ff1ac2555de239bcf03d73d45fe7f6594ac62e4057c2f6a609964c047bf92852b8460405161151c9190611d70565b60405180910390a3505050808060010191505061131f565b506001816004015f6101000a81548160ff021916908315150217905550817f3838459cd794256a3c29bb3186da72029a8036c0f596fee1bd526f8eb9493d4182600201546040516115859190611d70565b60405180910390a25050565b5f8061159b6117ba565b9050806001015f9054906101000a900473ffffffffffffffffffffffffffffffffffffffff1673ffffffffffffffffffffffffffffffffffffffff1663196d0b9b863387876040518563ffffffff1660e01b81526004016115ff9493929190612c98565b6020604051808303815f875af115801561161b573d5f803e3d5ffd5b505050506040513d601f19601f8201168201806040525081019061163f9190612d0c565b9150805f015f9054906101000a900473ffffffffffffffffffffffffffffffffffffffff1673ffffffffffffffffffffffffffffffffffffffff16633e395cec83336040518363ffffffff1660e01b815260040161169e929190612d37565b5f604051808303815f87803b1580156116b5575f80fd5b505af11580156116c7573d5f803e3d5ffd5b50505050509392505050565b5f6116dc6117ba565b9050805f015f9054906101000a900473ffffffffffffffffffffffffffffffffffffffff1673ffffffffffffffffffffffffffffffffffffffff1663b9496b6284846040518363ffffffff1660e01b815260040161173b929190612d37565b5f604051808303815f87803b158015611752575f80fd5b505af1158015611764573d5f803e3d5ffd5b50505050505050565b5f819050919050565b5f819050919050565b5f61178b83835f6117e1565b905092915050565b5f7f878245876662ba28a480c5ea71726db859fb50222b0a3d7cbbc21cfa336faf00905090565b5f7f9e7b61f58c47dc699ac88507c4f5bb9f121c03808c5676a8078fe583e4649700905090565b5f806117eb611793565b9050805f015491505f6117fc6117ba565b9050805f015f9054906101000a900473ffffffffffffffffffffffffffffffffffffffff1673ffffffffffffffffffffffffffffffffffffffff1663fadd2246876040518263ffffffff1660e01b81526004016118599190612d5e565b5f604051808303815f87803b158015611870575f80fd5b505af1158015611882573d5f803e3d5ffd5b50505050806002015f9054906101000a900473ffffffffffffffffffffffffffffffffffffffff1673ffffffffffffffffffffffffffffffffffffffff16633263b83b858589896040518563ffffffff1660e01b81526004016118e793929190612db8565b5f604051808303818588803b1580156118fe575f80fd5b505af1158015611910573d5f803e3d5ffd5b505050505061191f8387611940565b815f015f8154809291906119329061277a565b919050555050509392505050565b5f611949611793565b90505f816001015f8581526020019081526020015f20805490501461199a576040517f3f06d22b00000000000000000000000000000000000000000000000000000000815260040160405180910390fd5b81816001015f8581526020019081526020015f2090805190602001906119c19291906119c7565b50505050565b828054828255905f5260205f20908101928215611a01579160200282015b82811115611a005782518255916020019190600101906119e5565b5b509050611a0e9190611a12565b5090565b5b80821115611a29575f815f905550600101611a13565b5090565b5f604051905090565b5f80fd5b5f80fd5b5f819050919050565b611a5081611a3e565b8114611a5a575f80fd5b50565b5f81359050611a6b81611a47565b92915050565b5f60208284031215611a8657611a85611a36565b5b5f611a9384828501611a5d565b91505092915050565b5f8115159050919050565b611ab081611a9c565b82525050565b611abf81611a3e565b82525050565b5f608082019050611ad85f830187611aa7565b611ae56020830186611aa7565b611af26040830185611aa7565b611aff6060830184611ab6565b95945050505050565b5f80fd5b5f80fd5b5f601f19601f8301169050919050565b7f4e487b71000000000000000000000000000000000000000000000000000000005f52604160045260245ffd5b611b5682611b10565b810181811067ffffffffffffffff82111715611b7557611b74611b20565b5b80604052505050565b5f611b87611a2d565b9050611b938282611b4d565b919050565b5f67ffffffffffffffff821115611bb257611bb1611b20565b5b611bbb82611b10565b9050602081019050919050565b828183375f83830152505050565b5f611be8611be384611b98565b611b7e565b905082815260208101848484011115611c0457611c03611b0c565b5b611c0f848285611bc8565b509392505050565b5f82601f830112611c2b57611c2a611b08565b5b8135611c3b848260208601611bd6565b91505092915050565b5f805f60608486031215611c5b57611c5a611a36565b5b5f611c6886828701611a5d565b935050602084013567ffffffffffffffff811115611c8957611c88611a3a565b5b611c9586828701611c17565b925050604084013567ffffffffffffffff811115611cb657611cb5611a3a565b5b611cc286828701611c17565b9150509250925092565b5f8060408385031215611ce257611ce1611a36565b5b5f611cef85828601611a5d565b9250506020611d0085828601611a5d565b9150509250929050565b5f73ffffffffffffffffffffffffffffffffffffffff82169050919050565b5f611d3382611d0a565b9050919050565b611d4381611d29565b82525050565b5f604082019050611d5c5f830185611d3a565b611d696020830184611ab6565b9392505050565b5f602082019050611d835f830184611ab6565b92915050565b5f602082019050611d9c5f830184611d3a565b92915050565b5f819050919050565b5f611db582611da2565b9050919050565b611dc581611dab565b82525050565b611dd481611dab565b82525050565b5f604082019050611ded5f830185611dbc565b611dfa6020830184611dcb565b9392505050565b5f80fd5b5f80fd5b5f8083601f840112611e1e57611e1d611b08565b5b8235905067ffffffffffffffff811115611e3b57611e3a611e01565b5b602083019150836020820283011115611e5757611e56611e05565b5b9250929050565b5f8083601f840112611e7357611e72611b08565b5b8235905067ffffffffffffffff811115611e9057611e8f611e01565b5b602083019150836020820283011115611eac57611eab611e05565b5b9250929050565b5f8083601f840112611ec857611ec7611b08565b5b8235905067ffffffffffffffff811115611ee557611ee4611e01565b5b602083019150836020820283011115611f0157611f00611e05565b5b9250929050565b5f805f805f805f806080898b031215611f2457611f23611a36565b5b5f89013567ffffffffffffffff811115611f4157611f40611a3a565b5b611f4d8b828c01611e09565b9850985050602089013567ffffffffffffffff811115611f7057611f6f611a3a565b5b611f7c8b828c01611e5e565b9650965050604089013567ffffffffffffffff811115611f9f57611f9e611a3a565b5b611fab8b828c01611eb3565b9450945050606089013567ffffffffffffffff811115611fce57611fcd611a3a565b5b611fda8b828c01611eb3565b92509250509295985092959890939650565b5f60e082019050611fff5f83018a611ab6565b61200c6020830189611d3a565b6120196040830188611ab6565b6120266060830187611ab6565b6120336080830186611aa7565b61204060a0830185611aa7565b61204d60c0830184611aa7565b98975050505050505050565b5f82825260208201905092915050565b7f496e76616c6964207265717565737420494400000000000000000000000000005f82015250565b5f61209d601283612059565b91506120a882612069565b602082019050919050565b5f6020820190508181035f8301526120ca81612091565b9050919050565b5f67ffffffffffffffff8211156120eb576120ea611b20565b5b602082029050602081019050919050565b5f67ffffffffffffffff82169050919050565b612118816120fc565b8114612122575f80fd5b50565b5f815190506121338161210f565b92915050565b5f61214b612146846120d1565b611b7e565b9050808382526020820190506020840283018581111561216e5761216d611e05565b5b835b8181101561219757806121838882612125565b845260208401935050602081019050612170565b5050509392505050565b5f82601f8301126121b5576121b4611b08565b5b81516121c5848260208601612139565b91505092915050565b5f602082840312156121e3576121e2611a36565b5b5f82015167ffffffffffffffff811115612200576121ff611a3a565b5b61220c848285016121a1565b91505092915050565b7f4e487b71000000000000000000000000000000000000000000000000000000005f52603260045260245ffd5b7f4e487b71000000000000000000000000000000000000000000000000000000005f52601160045260245ffd5b5f61227982611a3e565b915061228483611a3e565b925082820190508082111561229c5761229b612242565b5b92915050565b7f4f6e6c79206f776e65722063616e2063616c6c20746869732066756e6374696f5f8201527f6e00000000000000000000000000000000000000000000000000000000000000602082015250565b5f6122fc602183612059565b9150612307826122a2565b604082019050919050565b5f6020820190508181035f830152612329816122f0565b9050919050565b7f4e6f2066756e647320746f2077697468647261770000000000000000000000005f82015250565b5f612364601483612059565b915061236f82612330565b602082019050919050565b5f6020820190508181035f83015261239181612358565b9050919050565b5f81905092915050565b50565b5f6123b05f83612398565b91506123bb826123a2565b5f82019050919050565b5f6123cf826123a5565b9150819050919050565b7f5769746864726177616c206661696c65640000000000000000000000000000005f82015250565b5f61240d601183612059565b9150612418826123d9565b602082019050919050565b5f6020820190508181035f83015261243a81612401565b9050919050565b7f44617461206e6f742064656372797074656420796574000000000000000000005f82015250565b5f612475601683612059565b915061248082612441565b602082019050919050565b5f6020820190508181035f8301526124a281612469565b9050919050565b7f496e76616c696420656d706c6f79656520696e646578000000000000000000005f82015250565b5f6124dd601683612059565b91506124e8826124a9565b602082019050919050565b5f6020820190508181035f83015261250a816124d1565b9050919050565b5f67ffffffffffffffff82111561252b5761252a611b20565b5b602082029050602081019050919050565b61254581611d29565b811461254f575f80fd5b50565b5f815190506125608161253c565b92915050565b5f61257861257384612511565b611b7e565b9050808382526020820190506020840283018581111561259b5761259a611e05565b5b835b818110156125c457806125b08882612552565b84526020840193505060208101905061259d565b5050509392505050565b5f82601f8301126125e2576125e1611b08565b5b81516125f2848260208601612566565b91505092915050565b5f602082840312156126105761260f611a36565b5b5f82015167ffffffffffffffff81111561262d5761262c611a3a565b5b612639848285016125ce565b91505092915050565b7f417272617973206d7573742068617665207468652073616d65206c656e6774685f82015250565b5f612676602083612059565b915061268182612642565b602082019050919050565b5f6020820190508181035f8301526126a38161266a565b9050919050565b7f456d707479206261746368206e6f7420616c6c6f7765640000000000000000005f82015250565b5f6126de601783612059565b91506126e9826126aa565b602082019050919050565b5f6020820190508181035f83015261270b816126d2565b9050919050565b7f42617463682073697a6520746f6f206c617267650000000000000000000000005f82015250565b5f612746601483612059565b915061275182612712565b602082019050919050565b5f6020820190508181035f8301526127738161273a565b9050919050565b5f61278482611a3e565b91507fffffffffffffffffffffffffffffffffffffffffffffffffffffffffffffffff82036127b6576127b5612242565b5b600182019050919050565b5f80fd5b5f80fd5b5f80fd5b5f80833560016020038436030381126127e9576127e86127c1565b5b80840192508235915067ffffffffffffffff82111561280b5761280a6127c5565b5b602083019250600182023603831315612827576128266127c9565b5b509250929050565b5f81519050919050565b5f5b8381101561285657808201518184015260208101905061283b565b5f8484015250505050565b5f61286b8261282f565b6128758185612398565b9350612885818560208601612839565b80840191505092915050565b5f819050919050565b6128ab6128a682611a3e565b612891565b82525050565b5f6128bc8285612861565b91506128c8828461289a565b6020820191508190509392505050565b5f81519050919050565b5f82825260208201905092915050565b5f819050602082019050919050565b61290a81611da2565b82525050565b5f61291b8383612901565b60208301905092915050565b5f602082019050919050565b5f61293d826128d8565b61294781856128e2565b9350612952836128f2565b805f5b838110156129825781516129698882612910565b975061297483612927565b925050600181019050612955565b5085935050505092915050565b5f82825260208201905092915050565b5f6129a98261282f565b6129b3818561298f565b93506129c3818560208601612839565b6129cc81611b10565b840191505092915050565b5f6060820190508181035f8301526129ef8186612933565b90508181036020830152612a03818561299f565b90508181036040830152612a17818461299f565b9050949350505050565b612a2a81611a9c565b8114612a34575f80fd5b50565b5f81519050612a4581612a21565b92915050565b5f60208284031215612a6057612a5f611a36565b5b5f612a6d84828501612a37565b91505092915050565b7f496e73756666696369656e7420636f6e74726163742062616c616e63650000005f82015250565b5f612aaa601d83612059565b9150612ab582612a76565b602082019050919050565b5f6020820190508181035f830152612ad781612a9e565b9050919050565b7f496e76616c696420656d706c6f796565206164647265737300000000000000005f82015250565b5f612b12601883612059565b9150612b1d82612ade565b602082019050919050565b5f6020820190508181035f830152612b3f81612b06565b9050919050565b7f496e76616c69642073616c61727920616d6f756e7400000000000000000000005f82015250565b5f612b7a601583612059565b9150612b8582612b46565b602082019050919050565b5f6020820190508181035f830152612ba781612b6e565b9050919050565b7f53616c617279207472616e73666572206661696c6564000000000000000000005f82015250565b5f612be2601683612059565b9150612bed82612bae565b602082019050919050565b5f6020820190508181035f830152612c0f81612bd6565b9050919050565b612c1f81611da2565b82525050565b7f4e487b71000000000000000000000000000000000000000000000000000000005f52602160045260245ffd5b60548110612c6357612c62612c25565b5b50565b5f819050612c7382612c52565b919050565b5f612c8282612c66565b9050919050565b612c9281612c78565b82525050565b5f608082019050612cab5f830187612c16565b612cb86020830186611d3a565b8181036040830152612cca818561299f565b9050612cd96060830184612c89565b95945050505050565b612ceb81611da2565b8114612cf5575f80fd5b50565b5f81519050612d0681612ce2565b92915050565b5f60208284031215612d2157612d20611a36565b5b5f612d2e84828501612cf8565b91505092915050565b5f604082019050612d4a5f830185612c16565b612d576020830184611d3a565b9392505050565b5f6020820190508181035f830152612d768184612933565b905092915050565b5f7fffffffff0000000000000000000000000000000000000000000000000000000082169050919050565b612db281612d7e565b82525050565b5f606082019050612dcb5f830186611ab6565b8181036020830152612ddd8185612933565b9050612dec6040830184612da9565b94935050505056fea2646970667358221220b06fda2ff0a4705a129598ca0226973ed7996d68d9b73642c778716663164a9b64736f6c63430008180033",
  "linkReferences": {},
  "deployedLinkReferences": {},
  "immutableReferences": {},
  "inputSourceName": "project/contracts/DropDis.sol",
  "buildInfoId": "solc-0_8_24-f11b0cf878032f0921d6a23b3127f2087340ef00"
}